{
    "contractName": "AdminFacet",
    "abi": [
        {
            "inputs": [],
            "name": "AccessControlBadConfirmation",
            "type": "error"
        },
        {
            "inputs": [
                {
                    "internalType": "address",
                    "name": "account",
                    "type": "address"
                },
                {
                    "internalType": "bytes32",
                    "name": "neededRole",
                    "type": "bytes32"
                }
            ],
            "name": "AccessControlUnauthorizedAccount",
            "type": "error"
        },
        {
            "anonymous": false,
            "inputs": [
                {
                    "indexed": false,
                    "internalType": "uint256",
                    "name": "amount",
                    "type": "uint256"
                }
            ],
            "name": "AdminFeePaid",
            "type": "event"
        },
        {
            "anonymous": false,
            "inputs": [
                {
                    "indexed": true,
                    "internalType": "uint256",
                    "name": "level",
                    "type": "uint256"
                },
                {
                    "indexed": false,
                    "internalType": "uint256",
                    "name": "directRequired",
                    "type": "uint256"
                },
                {
                    "indexed": false,
                    "internalType": "uint256",
                    "name": "percent",
                    "type": "uint256"
                }
            ],
            "name": "LevelRequirementUpdated",
            "type": "event"
        },
        {
            "anonymous": false,
            "inputs": [
                {
                    "indexed": false,
                    "internalType": "uint8[3]",
                    "name": "distributionDays",
                    "type": "uint8[3]"
                }
            ],
            "name": "PoolDistributionDaysUpdated",
            "type": "event"
        },
        {
            "anonymous": false,
            "inputs": [
                {
                    "indexed": true,
                    "internalType": "bytes32",
                    "name": "role",
                    "type": "bytes32"
                },
                {
                    "indexed": true,
                    "internalType": "bytes32",
                    "name": "previousAdminRole",
                    "type": "bytes32"
                },
                {
                    "indexed": true,
                    "internalType": "bytes32",
                    "name": "newAdminRole",
                    "type": "bytes32"
                }
            ],
            "name": "RoleAdminChanged",
            "type": "event"
        },
        {
            "anonymous": false,
            "inputs": [
                {
                    "indexed": true,
                    "internalType": "bytes32",
                    "name": "role",
                    "type": "bytes32"
                },
                {
                    "indexed": true,
                    "internalType": "address",
                    "name": "account",
                    "type": "address"
                },
                {
                    "indexed": true,
                    "internalType": "address",
                    "name": "sender",
                    "type": "address"
                }
            ],
            "name": "RoleGranted",
            "type": "event"
        },
        {
            "anonymous": false,
            "inputs": [
                {
                    "indexed": true,
                    "internalType": "bytes32",
                    "name": "role",
                    "type": "bytes32"
                },
                {
                    "indexed": true,
                    "internalType": "address",
                    "name": "account",
                    "type": "address"
                },
                {
                    "indexed": true,
                    "internalType": "address",
                    "name": "sender",
                    "type": "address"
                }
            ],
            "name": "RoleRevoked",
            "type": "event"
        },
        {
            "anonymous": false,
            "inputs": [
                {
                    "indexed": true,
                    "internalType": "uint256",
                    "name": "slotNumber",
                    "type": "uint256"
                },
                {
                    "indexed": false,
                    "internalType": "bool",
                    "name": "active",
                    "type": "bool"
                }
            ],
            "name": "SlotActiveStatusChanged",
            "type": "event"
        },
        {
            "anonymous": false,
            "inputs": [
                {
                    "indexed": true,
                    "internalType": "uint256",
                    "name": "slotNumber",
                    "type": "uint256"
                },
                {
                    "indexed": false,
                    "internalType": "uint256",
                    "name": "price",
                    "type": "uint256"
                },
                {
                    "indexed": false,
                    "internalType": "uint256",
                    "name": "poolPercent",
                    "type": "uint256"
                }
            ],
            "name": "SlotUpdated",
            "type": "event"
        },
        {
            "anonymous": false,
            "inputs": [
                {
                    "indexed": true,
                    "internalType": "address",
                    "name": "oldTreasury",
                    "type": "address"
                },
                {
                    "indexed": true,
                    "internalType": "address",
                    "name": "newTreasury",
                    "type": "address"
                }
            ],
            "name": "TreasuryUpdated",
            "type": "event"
        },
        {
            "inputs": [],
            "name": "ADMIN_FEE_PERCENT",
            "outputs": [
                {
                    "internalType": "uint256",
                    "name": "",
                    "type": "uint256"
                }
            ],
            "stateMutability": "view",
            "type": "function"
        },
        {
            "inputs": [],
            "name": "ADMIN_ROLE",
            "outputs": [
                {
                    "internalType": "bytes32",
                    "name": "",
                    "type": "bytes32"
                }
            ],
            "stateMutability": "view",
            "type": "function"
        },
        {
            "inputs": [],
            "name": "DEFAULT_ADMIN_ROLE",
            "outputs": [
                {
                    "internalType": "bytes32",
                    "name": "",
                    "type": "bytes32"
                }
            ],
            "stateMutability": "view",
            "type": "function"
        },
        {
            "inputs": [],
            "name": "LEVEL_INCOME_PERCENT",
            "outputs": [
                {
                    "internalType": "uint256",
                    "name": "",
                    "type": "uint256"
                }
            ],
            "stateMutability": "view",
            "type": "function"
        },
        {
            "inputs": [],
            "name": "MATRIX_INCOME_PERCENT",
            "outputs": [
                {
                    "internalType": "uint256",
                    "name": "",
                    "type": "uint256"
                }
            ],
            "stateMutability": "view",
            "type": "function"
        },
        {
            "inputs": [],
            "name": "MAX_PAYOUT_PERCENT",
            "outputs": [
                {
                    "internalType": "uint256",
                    "name": "",
                    "type": "uint256"
                }
            ],
            "stateMutability": "view",
            "type": "function"
        },
        {
            "inputs": [],
            "name": "MAX_PAYOUT_TIME",
            "outputs": [
                {
                    "internalType": "uint256",
                    "name": "",
                    "type": "uint256"
                }
            ],
            "stateMutability": "view",
            "type": "function"
        },
        {
            "inputs": [],
            "name": "POOL_EXTRA_PERCENT",
            "outputs": [
                {
                    "internalType": "uint256",
                    "name": "",
                    "type": "uint256"
                }
            ],
            "stateMutability": "view",
            "type": "function"
        },
        {
            "inputs": [
                {
                    "internalType": "uint256",
                    "name": "_amount",
                    "type": "uint256"
                }
            ],
            "name": "emergencyWithdraw",
            "outputs": [],
            "stateMutability": "nonpayable",
            "type": "function"
        },
        {
            "inputs": [
                {
                    "internalType": "uint256",
                    "name": "_level",
                    "type": "uint256"
                }
            ],
            "name": "getLevelRequirement",
            "outputs": [
                {
                    "internalType": "uint256",
                    "name": "directRequired",
                    "type": "uint256"
                },
                {
                    "internalType": "uint256",
                    "name": "percent",
                    "type": "uint256"
                }
            ],
            "stateMutability": "view",
            "type": "function"
        },
        {
            "inputs": [],
            "name": "getPoolDistributionDays",
            "outputs": [
                {
                    "internalType": "uint8[3]",
                    "name": "",
                    "type": "uint8[3]"
                }
            ],
            "stateMutability": "view",
            "type": "function"
        },
        {
            "inputs": [
                {
                    "internalType": "bytes32",
                    "name": "role",
                    "type": "bytes32"
                }
            ],
            "name": "getRoleAdmin",
            "outputs": [
                {
                    "internalType": "bytes32",
                    "name": "",
                    "type": "bytes32"
                }
            ],
            "stateMutability": "view",
            "type": "function"
        },
        {
            "inputs": [
                {
                    "internalType": "bytes32",
                    "name": "role",
                    "type": "bytes32"
                },
                {
                    "internalType": "uint256",
                    "name": "index",
                    "type": "uint256"
                }
            ],
            "name": "getRoleMember",
            "outputs": [
                {
                    "internalType": "address",
                    "name": "",
                    "type": "address"
                }
            ],
            "stateMutability": "view",
            "type": "function"
        },
        {
            "inputs": [
                {
                    "internalType": "bytes32",
                    "name": "role",
                    "type": "bytes32"
                }
            ],
            "name": "getRoleMemberCount",
            "outputs": [
                {
                    "internalType": "uint256",
                    "name": "",
                    "type": "uint256"
                }
            ],
            "stateMutability": "view",
            "type": "function"
        },
        {
            "inputs": [
                {
                    "internalType": "bytes32",
                    "name": "role",
                    "type": "bytes32"
                }
            ],
            "name": "getRoleMembers",
            "outputs": [
                {
                    "internalType": "address[]",
                    "name": "",
                    "type": "address[]"
                }
            ],
            "stateMutability": "view",
            "type": "function"
        },
        {
            "inputs": [
                {
                    "internalType": "uint256",
                    "name": "_slotNumber",
                    "type": "uint256"
                }
            ],
            "name": "getSlotInfo",
            "outputs": [
                {
                    "internalType": "uint256",
                    "name": "price",
                    "type": "uint256"
                },
                {
                    "internalType": "uint256",
                    "name": "poolPercent",
                    "type": "uint256"
                },
                {
                    "internalType": "bool",
                    "name": "active",
                    "type": "bool"
                }
            ],
            "stateMutability": "view",
            "type": "function"
        },
        {
            "inputs": [],
            "name": "getTreasury",
            "outputs": [
                {
                    "internalType": "address",
                    "name": "",
                    "type": "address"
                }
            ],
            "stateMutability": "view",
            "type": "function"
        },
        {
            "inputs": [
                {
                    "internalType": "address",
                    "name": "_newAdmin",
                    "type": "address"
                }
            ],
            "name": "grantAdminRole",
            "outputs": [],
            "stateMutability": "nonpayable",
            "type": "function"
        },
        {
            "inputs": [
                {
                    "internalType": "bytes32",
                    "name": "role",
                    "type": "bytes32"
                },
                {
                    "internalType": "address",
                    "name": "account",
                    "type": "address"
                }
            ],
            "name": "grantRole",
            "outputs": [],
            "stateMutability": "nonpayable",
            "type": "function"
        },
        {
            "inputs": [
                {
                    "internalType": "bytes32",
                    "name": "role",
                    "type": "bytes32"
                },
                {
                    "internalType": "address",
                    "name": "account",
                    "type": "address"
                }
            ],
            "name": "hasRole",
            "outputs": [
                {
                    "internalType": "bool",
                    "name": "",
                    "type": "bool"
                }
            ],
            "stateMutability": "view",
            "type": "function"
        },
        {
            "inputs": [
                {
                    "internalType": "address",
                    "name": "admin",
                    "type": "address"
                }
            ],
            "name": "initializeAdminFacet",
            "outputs": [],
            "stateMutability": "nonpayable",
            "type": "function"
        },
        {
            "inputs": [],
            "name": "lastPoolDistributionTime",
            "outputs": [
                {
                    "internalType": "uint256",
                    "name": "",
                    "type": "uint256"
                }
            ],
            "stateMutability": "view",
            "type": "function"
        },
        {
            "inputs": [],
            "name": "owner",
            "outputs": [
                {
                    "internalType": "address",
                    "name": "",
                    "type": "address"
                }
            ],
            "stateMutability": "view",
            "type": "function"
        },
        {
            "inputs": [
                {
                    "internalType": "uint256",
                    "name": "",
                    "type": "uint256"
                }
            ],
            "name": "poolDistributionDays",
            "outputs": [
                {
                    "internalType": "uint8",
                    "name": "",
                    "type": "uint8"
                }
            ],
            "stateMutability": "view",
            "type": "function"
        },
        {
            "inputs": [
                {
                    "internalType": "bytes32",
                    "name": "role",
                    "type": "bytes32"
                },
                {
                    "internalType": "address",
                    "name": "callerConfirmation",
                    "type": "address"
                }
            ],
            "name": "renounceRole",
            "outputs": [],
            "stateMutability": "nonpayable",
            "type": "function"
        },
        {
            "inputs": [
                {
                    "internalType": "address",
                    "name": "_admin",
                    "type": "address"
                }
            ],
            "name": "revokeAdminRole",
            "outputs": [],
            "stateMutability": "nonpayable",
            "type": "function"
        },
        {
            "inputs": [
                {
                    "internalType": "bytes32",
                    "name": "role",
                    "type": "bytes32"
                },
                {
                    "internalType": "address",
                    "name": "account",
                    "type": "address"
                }
            ],
            "name": "revokeRole",
            "outputs": [],
            "stateMutability": "nonpayable",
            "type": "function"
        },
        {
            "inputs": [
                {
                    "internalType": "uint8[3]",
                    "name": "_days",
                    "type": "uint8[3]"
                }
            ],
            "name": "setPoolDistributionDays",
            "outputs": [],
            "stateMutability": "nonpayable",
            "type": "function"
        },
        {
            "inputs": [
                {
                    "internalType": "uint256",
                    "name": "_slotNumber",
                    "type": "uint256"
                },
                {
                    "internalType": "bool",
                    "name": "_active",
                    "type": "bool"
                }
            ],
            "name": "setSlotActive",
            "outputs": [],
            "stateMutability": "nonpayable",
            "type": "function"
        },
        {
            "inputs": [
                {
                    "internalType": "address",
                    "name": "_newTreasury",
                    "type": "address"
                }
            ],
            "name": "setTreasury",
            "outputs": [],
            "stateMutability": "nonpayable",
            "type": "function"
        },
        {
            "inputs": [
                {
                    "internalType": "bytes4",
                    "name": "interfaceId",
                    "type": "bytes4"
                }
            ],
            "name": "supportsInterface",
            "outputs": [
                {
                    "internalType": "bool",
                    "name": "",
                    "type": "bool"
                }
            ],
            "stateMutability": "view",
            "type": "function"
        },
        {
            "inputs": [],
            "name": "totalPoolBalance",
            "outputs": [
                {
                    "internalType": "uint256",
                    "name": "",
                    "type": "uint256"
                }
            ],
            "stateMutability": "view",
            "type": "function"
        },
        {
            "inputs": [],
            "name": "totalUsers",
            "outputs": [
                {
                    "internalType": "uint256",
                    "name": "",
                    "type": "uint256"
                }
            ],
            "stateMutability": "view",
            "type": "function"
        },
        {
            "inputs": [],
            "name": "totalVolume",
            "outputs": [
                {
                    "internalType": "uint256",
                    "name": "",
                    "type": "uint256"
                }
            ],
            "stateMutability": "view",
            "type": "function"
        },
        {
            "inputs": [],
            "name": "treasury",
            "outputs": [
                {
                    "internalType": "address",
                    "name": "",
                    "type": "address"
                }
            ],
            "stateMutability": "view",
            "type": "function"
        },
        {
            "inputs": [
                {
                    "internalType": "uint256",
                    "name": "_level",
                    "type": "uint256"
                },
                {
                    "internalType": "uint256",
                    "name": "_directRequired",
                    "type": "uint256"
                },
                {
                    "internalType": "uint256",
                    "name": "_percent",
                    "type": "uint256"
                }
            ],
            "name": "updateLevelRequirement",
            "outputs": [],
            "stateMutability": "nonpayable",
            "type": "function"
        },
        {
            "inputs": [
                {
                    "internalType": "uint256",
                    "name": "_slotNumber",
                    "type": "uint256"
                },
                {
                    "internalType": "uint256",
                    "name": "_price",
                    "type": "uint256"
                },
                {
                    "internalType": "uint256",
                    "name": "_poolPercent",
                    "type": "uint256"
                }
            ],
            "name": "updateSlot",
            "outputs": [],
            "stateMutability": "nonpayable",
            "type": "function"
        },
        {
            "inputs": [],
            "name": "version",
            "outputs": [
                {
                    "internalType": "uint256",
                    "name": "",
                    "type": "uint256"
                }
            ],
            "stateMutability": "view",
            "type": "function"
        }
    ],
    "bytecode": "608034608357606081016001600160401b03811182821017606f5760405260058152600f6020820152601960408201525f905f5b60038110604c57825f556040516118ab90816100888239f35b9091602060019160ff8551169060ff8560031b92831b921b191617930191016033565b634e487b7160e01b5f52604160045260245ffd5b5f80fdfe6080806040526004361015610012575f80fd5b5f3560e01c90816301ffc9a714610ff9575080631deb957d14610f695780632086a59a14610f09578063248a9ca314610ed65780632f2ff15d14610e98578063358a7fa214610e4657806336568abe14610e025780633b19e84a14610c7b578063417af0b514610de557806347e8ba3e14610dca5780635026d63e14610dad5780635312ea8e14610cdd57806354fd4d5014610cc05780635f81a57c14610ca357806361d027b314610c7b57806375b238fc14610c545780637638ba321461078f5780637eff007d14610c375780638b930d1d14610af35780638da5cb5b14610acb5780639010d07c14610a8657806391d1485414610a3d57806398b8364f14610a065780639a19c7b014610981578063a217fddf14610967578063a3246ad3146108b8578063be20f9ac14610853578063bff1f9e114610836578063c634b78e146107be578063ca15c87314610794578063cae32bc31461078f578063cbd7b19e14610678578063d3d50d951461065d578063d547741f1461061f578063e2ee1813146103b9578063ebbf40361461039e578063f06ef3cd1461027a5763f0f44260146101be575f80fd5b34610276576020366003190112610276576101d76110ac565b6101df611214565b6001600160a01b0316801561023157600780546001600160a01b0319811683179091556001600160a01b03167f4ab5be82436d353e61ca18726e984e561f5c1cc7c6d38b29d2553c790434705a5f80a3005b60405162461bcd60e51b815260206004820152601860248201527f496e76616c6964207472656173757279206164647265737300000000000000006044820152606490fd5b5f80fd5b346102765761028836611113565b610290611214565b600183101580610393575b6102a49061116f565b811561033f5780156102fa575f8381526005602090815260409182902084815560010183905581519384528301919091527f9394e181a9769083f236dde982d839dc9c255f175793dc70846e09f1b776a2b891a2005b60405162461bcd60e51b815260206004820152601e60248201527f50657263656e74206d7573742062652067726561746572207468616e203000006044820152606490fd5b60405162461bcd60e51b815260206004820152602660248201527f446972656374207265717569726564206d75737420626520677265617465722060448201526507468616e20360d41b6064820152608490fd5b50603283111561029b565b34610276575f36600319011261027657602060405160c88152f35b34610276576020366003190112610276576103d26110ac565b6001600160a01b038116906103e88215156111d0565b5f805260406020527f72d0927ca0fe30cbe8022c9a81259da3fa697099c3a44d94726bf134bd7668ca546104aa578061042361042c926113fb565b61047257611484565b610433575b005b5f5160206118565f395f51905f525f526040602052610431907f06392e874ce72220b31d4d3945de52edfac537d803236a1c485ec43debd932ea6116cd565b5f805260406020526104a4837f72d0927ca0fe30cbe8022c9a81259da3fa697099c3a44d94726bf134bd7668ca6116cd565b50611484565b335f9081525f5160206118365f395f51905f52602052604090205490919060ff16156105ce575f9081525f5160206118365f395f51905f52602052604090205460ff1661057d575f8052603f6020527fe9090a6e551363283803e59daf1c144cd0ac55c420ac8519a53d83ef396a73b454610431919061052990611299565b61053281611340565b505f5160206118565f395f51905f525f52603f6020527f7e09f7c048dcc3ad40ce8eb7b1b34fe9f596953cfb62c2b8ff7cd105f799ff4e5461057890611299565b611299565b6112d3565b60405162461bcd60e51b8152602060048201526024808201527f41646d696e20616c7265616479206861732044454641554c545f41444d494e5f604482015263524f4c4560e01b6064820152608490fd5b60405162461bcd60e51b815260206004820152602360248201527f43616c6c6572206d75737420686176652044454641554c545f41444d494e5f526044820152624f4c4560e81b6064820152608490fd5b346102765760403660031901126102765761043160043561063e611096565b90610658610573825f52603f602052600160405f20015490565b6113c5565b34610276575f36600319011261027657602060405160038152f35b346102765761068636611113565b61068e611214565b600183101580610784575b6106a29061112d565b811561073f57606481116106fa575f8381526002602090815260409182902084815560010183905581519384528301919091527f5c92dfdf4c4318e65f91eb3d3a2612e33f11823f65c660fa5a1a400a49755d3591a2005b60405162461bcd60e51b815260206004820152601e60248201527f506f6f6c2070657263656e742063616e6e6f74206578636565642031303000006044820152606490fd5b60405162461bcd60e51b815260206004820152601c60248201527f5072696365206d7573742062652067726561746572207468616e2030000000006044820152606490fd5b50600c831115610699565b6110c2565b34610276576020366003190112610276576004355f526040602052602060405f2054604051908152f35b34610276576020366003190112610276576104316107da6110ac565b6107e261125d565b6107f66001600160a01b03821615156111d0565b5f5160206118565f395f51905f525f52603f6020527f7e09f7c048dcc3ad40ce8eb7b1b34fe9f596953cfb62c2b8ff7cd105f799ff4e5461057890611299565b34610276575f366003190112610276576020600854604051908152f35b34610276576020366003190112610276576004356001811015806108ad575b61087b9061112d565b5f526002602052606060405f2080549060ff600260018301549201541690604051928352602083015215156040820152f35b50600c811115610872565b34610276576020366003190112610276576004355f52604060205260405f20604051806020835491828152019081935f5260205f20905f5b81811061095157505050816109069103826110dd565b604051918291602083019060208452518091526040830191905f5b81811061092f575050500390f35b82516001600160a01b0316845285945060209384019390920191600101610921565b82548452602090930192600192830192016108f0565b34610276575f3660031901126102765760206040515f8152f35b346102765760203660031901126102765761099a6110ac565b6109a261125d565b6001600160a01b038116906109c1906109bc8315156111d0565b6115a3565b6109c757005b5f5160206118565f395f51905f525f526040602052610431907f06392e874ce72220b31d4d3945de52edfac537d803236a1c485ec43debd932ea61173c565b346102765760203660031901126102765760043560038110156102765760209060ff8160051c5460f86040519360031b161c168152f35b3461027657604036600319011261027657610a56611096565b6004355f52603f60205260405f209060018060a01b03165f52602052602060ff60405f2054166040519015158152f35b34610276576040366003190112610276576004355f5260406020526020610ab260243560405f206116b8565b905460405160039290921b1c6001600160a01b03168152f35b34610276575f366003190112610276576006546040516001600160a01b039091168152602090f35b3461027657606036600319011261027657366023121561027657604051610b1b6060826110dd565b8036606411610276576004905b60648210610c1d5782610b39611214565b5f5b60038110610bad57505f81815b60038110610b89577fdc73bcc7f01e012bc88837256bdc7bb8940ed0b98830d8674eb9e4be3b5fdcbc610b8485855f5560405191829182611066565b0390a1005b9091602060019160ff8551169060ff8560031b92831b921b19161793019101610b48565b600160ff610bbb83856111ab565b5116101580610c05575b15610bd257600101610b3b565b60405162461bcd60e51b815260206004820152600b60248201526a496e76616c69642064617960a81b6044820152606490fd5b50601e60ff610c1483856111ab565b51161115610bc5565b813560ff8116810361027657815260209182019101610b28565b34610276575f3660031901126102765760206040516276a7008152f35b34610276575f3660031901126102765760206040515f5160206118565f395f51905f528152f35b34610276575f366003190112610276576007546040516001600160a01b039091168152602090f35b34610276575f366003190112610276576020600954604051908152f35b34610276575f366003190112610276576020600c54604051908152f35b3461027657602036600319011261027657600435610cf961125d565b478111610d71576006546001600160a01b03168015610d3c575f8080938193828215610d33575bf115610d2857005b6040513d5f823e3d90fd5b506108fc610d20565b60405162461bcd60e51b815260206004820152600d60248201526c13dddb995c881b9bdd081cd95d609a1b6044820152606490fd5b60405162461bcd60e51b8152602060048201526014602482015273496e73756666696369656e742062616c616e636560601b6044820152606490fd5b34610276575f366003190112610276576020600a54604051908152f35b34610276575f366003190112610276576020604051604b8152f35b34610276575f366003190112610276576020600b54604051908152f35b3461027657604036600319011261027657610e1b611096565b336001600160a01b03821603610e3757610431906004356113c5565b63334bd91960e11b5f5260045ffd5b3461027657602036600319011261027657600435600181101580610e8d575b610e6e9061116f565b5f5260056020526040805f206001815491015482519182526020820152f35b506032811115610e65565b3461027657604036600319011261027657610431600435610eb7611096565b90610ed1610573825f52603f602052600160405f20015490565b61138f565b34610276576020366003190112610276576020610f016004355f52603f602052600160405f20015490565b604051908152f35b34610276575f366003190112610276576060604051610f2882826110dd565b369037610f6560405160ff5f548181168352818160081c16602084015260101c166040820152610f596060826110dd565b60405191829182611066565b0390f35b34610276576040366003190112610276576004356024358015158091036102765760207f72b3e148af374bf2aacd19a1c6252254b492602d66690b3577d039376fbd72ae91610fb6611214565b600184101580610fee575b610fca9061112d565b835f5260028252600260405f200160ff1981541660ff8316179055604051908152a2005b50600c841115610fc1565b34610276576020366003190112610276576004359063ffffffff60e01b821680920361027657602091635a05180f60e01b811490811561103b575b5015158152f35b637965db0b60e01b811491508115611055575b5083611034565b6301ffc9a760e01b1490508361104e565b919060608301925f905b6003821061107d57505050565b60208060019260ff865116815201930191019091611070565b602435906001600160a01b038216820361027657565b600435906001600160a01b038216820361027657565b34610276575f36600319011261027657602060405160198152f35b90601f8019910116810190811067ffffffffffffffff8211176110ff57604052565b634e487b7160e01b5f52604160045260245ffd5b606090600319011261027657600435906024359060443590565b1561113457565b60405162461bcd60e51b815260206004820152601360248201527224b73b30b634b21039b637ba10373ab6b132b960691b6044820152606490fd5b1561117657565b60405162461bcd60e51b815260206004820152600d60248201526c125b9d985b1a59081b195d995b609a1b6044820152606490fd5b9060038110156111bc5760051b0190565b634e487b7160e01b5f52603260045260245ffd5b156111d757565b60405162461bcd60e51b8152602060048201526015602482015274496e76616c69642061646d696e206164647265737360581b6044820152606490fd5b335f9081525f5160206118165f395f51905f52602052604090205460ff161561123957565b63e2517d3f60e01b5f52336004525f5160206118565f395f51905f5260245260445ffd5b335f9081525f5160206118365f395f51905f52602052604090205460ff161561128257565b63e2517d3f60e01b5f52336004525f60245260445ffd5b5f818152603f6020908152604080832033845290915290205460ff16156112bd5750565b63e2517d3f60e01b5f523360045260245260445ffd5b6112ea815f5160206118565f395f51905f52611517565b90816112f4575090565b5f5160206118565f395f51905f525f52604060205261133c906001600160a01b03167f06392e874ce72220b31d4d3945de52edfac537d803236a1c485ec43debd932ea6116cd565b5090565b61134a815f611517565b9081611354575090565b5f8052604060205261133c906001600160a01b03167f72d0927ca0fe30cbe8022c9a81259da3fa697099c3a44d94726bf134bd7668ca6116cd565b6113998282611517565b91826113a457505090565b5f9182526040602081905290912061133c916001600160a01b0316906116cd565b6113cf8282611634565b91826113da57505090565b5f9182526040602081905290912061133c916001600160a01b03169061173c565b6001600160a01b0381165f9081525f5160206118365f395f51905f52602052604090205460ff1661147f576001600160a01b03165f8181525f5160206118365f395f51905f5260205260408120805460ff191660011790553391907f2f8788117e7eff1d82e926ec794901d17c78024a50270940304540a733656f0d8180a4600190565b505f90565b6001600160a01b0381165f9081525f5160206118165f395f51905f52602052604090205460ff1661147f576001600160a01b03165f8181525f5160206118165f395f51905f5260205260408120805460ff191660011790553391905f5160206118565f395f51905f52907f2f8788117e7eff1d82e926ec794901d17c78024a50270940304540a733656f0d9080a4600190565b5f818152603f602090815260408083206001600160a01b038616845290915290205460ff1661159d575f818152603f602090815260408083206001600160a01b0395909516808452949091528120805460ff19166001179055339291907f2f8788117e7eff1d82e926ec794901d17c78024a50270940304540a733656f0d9080a4600190565b50505f90565b6001600160a01b0381165f9081525f5160206118165f395f51905f52602052604090205460ff161561147f576001600160a01b03165f8181525f5160206118165f395f51905f5260205260408120805460ff191690553391905f5160206118565f395f51905f52907ff6391f5c32d9c69d2a47ea670b442974b53935d1edc7fd64eb21e047a839171b9080a4600190565b5f818152603f602090815260408083206001600160a01b038616845290915290205460ff161561159d575f818152603f602090815260408083206001600160a01b0395909516808452949091528120805460ff19169055339291907ff6391f5c32d9c69d2a47ea670b442974b53935d1edc7fd64eb21e047a839171b9080a4600190565b80548210156111bc575f5260205f2001905f90565b6001810190825f528160205260405f2054155f14611735578054680100000000000000008110156110ff5761172261170c8260018794018555846116b8565b819391549060031b91821b915f19901b19161790565b905554915f5260205260405f2055600190565b5050505f90565b906001820191815f528260205260405f20548015155f1461180d575f1981018181116117f95782545f198101919082116117f9578181036117c4575b505050805480156117b0575f19019061179182826116b8565b8154905f199060031b1b19169055555f526020525f6040812055600190565b634e487b7160e01b5f52603160045260245ffd5b6117e46117d461170c93866116b8565b90549060031b1c928392866116b8565b90555f528360205260405f20555f8080611778565b634e487b7160e01b5f52601160045260245ffd5b505050505f9056fe7e09f7c048dcc3ad40ce8eb7b1b34fe9f596953cfb62c2b8ff7cd105f799ff4de9090a6e551363283803e59daf1c144cd0ac55c420ac8519a53d83ef396a73b3a49807205ce4d355092ef5a8a18f56e8913cf4a201fbe287825b095693c21775a2646970667358221220b7b8d524ead5044157e10733dfbedad65b1354c739fb5efa0c5082919695d18164736f6c634300081e0033",
    "sourcePath": "d:/Client Data/AmitjiSharma/fortunity-dapp/contracts/contracts/AdminFacet.sol",
    "compiler": {
        "name": "solc",
        "version": "0.8.30+commit.73712a01"
    },
    "functionHashes": {
        "ADMIN_FEE_PERCENT()": "d3d50d95",
        "ADMIN_ROLE()": "75b238fc",
        "DEFAULT_ADMIN_ROLE()": "a217fddf",
        "LEVEL_INCOME_PERCENT()": "7638ba32",
        "MATRIX_INCOME_PERCENT()": "47e8ba3e",
        "MAX_PAYOUT_PERCENT()": "ebbf4036",
        "MAX_PAYOUT_TIME()": "7eff007d",
        "POOL_EXTRA_PERCENT()": "cae32bc3",
        "emergencyWithdraw(uint256)": "5312ea8e",
        "getLevelRequirement(uint256)": "358a7fa2",
        "getPoolDistributionDays()": "2086a59a",
        "getRoleAdmin(bytes32)": "248a9ca3",
        "getRoleMember(bytes32,uint256)": "9010d07c",
        "getRoleMemberCount(bytes32)": "ca15c873",
        "getRoleMembers(bytes32)": "a3246ad3",
        "getSlotInfo(uint256)": "be20f9ac",
        "getTreasury()": "3b19e84a",
        "grantAdminRole(address)": "c634b78e",
        "grantRole(bytes32,address)": "2f2ff15d",
        "hasRole(bytes32,address)": "91d14854",
        "initializeAdminFacet(address)": "e2ee1813",
        "lastPoolDistributionTime()": "417af0b5",
        "owner()": "8da5cb5b",
        "poolDistributionDays(uint256)": "98b8364f",
        "renounceRole(bytes32,address)": "36568abe",
        "revokeAdminRole(address)": "9a19c7b0",
        "revokeRole(bytes32,address)": "d547741f",
        "setPoolDistributionDays(uint8[3])": "8b930d1d",
        "setSlotActive(uint256,bool)": "1deb957d",
        "setTreasury(address)": "f0f44260",
        "supportsInterface(bytes4)": "01ffc9a7",
        "totalPoolBalance()": "5026d63e",
        "totalUsers()": "bff1f9e1",
        "totalVolume()": "5f81a57c",
        "treasury()": "61d027b3",
        "updateLevelRequirement(uint256,uint256,uint256)": "f06ef3cd",
        "updateSlot(uint256,uint256,uint256)": "cbd7b19e",
        "version()": "54fd4d50"
    },
    "gasEstimates": {
        "creation": {
            "codeDepositCost": "1263000",
            "executionCost": "infinite",
            "totalCost": "infinite"
        },
        "external": {
            "ADMIN_FEE_PERCENT()": "857",
            "ADMIN_ROLE()": "512",
            "DEFAULT_ADMIN_ROLE()": "680",
            "LEVEL_INCOME_PERCENT()": "517",
            "MATRIX_INCOME_PERCENT()": "351",
            "MAX_PAYOUT_PERCENT()": "923",
            "MAX_PAYOUT_TIME()": "527",
            "POOL_EXTRA_PERCENT()": "825",
            "emergencyWithdraw(uint256)": "infinite",
            "getLevelRequirement(uint256)": "4656",
            "getPoolDistributionDays()": "infinite",
            "getRoleAdmin(bytes32)": "2408",
            "getRoleMember(bytes32,uint256)": "5009",
            "getRoleMemberCount(bytes32)": "2959",
            "getRoleMembers(bytes32)": "infinite",
            "getSlotInfo(uint256)": "7260",
            "getTreasury()": "2434",
            "grantAdminRole(address)": "infinite",
            "grantRole(bytes32,address)": "110729",
            "hasRole(bytes32,address)": "2947",
            "initializeAdminFacet(address)": "infinite",
            "lastPoolDistributionTime()": "2432",
            "owner()": "2698",
            "poolDistributionDays(uint256)": "2802",
            "renounceRole(bytes32,address)": "72201",
            "revokeAdminRole(address)": "infinite",
            "revokeRole(bytes32,address)": "77228",
            "setPoolDistributionDays(uint8[3])": "infinite",
            "setSlotActive(uint256,bool)": "infinite",
            "setTreasury(address)": "infinite",
            "supportsInterface(bytes4)": "327",
            "totalPoolBalance()": "2476",
            "totalUsers()": "2850",
            "totalVolume()": "2542",
            "treasury()": "2588",
            "updateLevelRequirement(uint256,uint256,uint256)": "infinite",
            "updateSlot(uint256,uint256,uint256)": "infinite",
            "version()": "2520"
        }
    }
}