{
    "contractName": "FortuneNXTProxyAdmin",
    "abi": [
        {
            "inputs": [
                {
                    "internalType": "address",
                    "name": "initialOwner",
                    "type": "address"
                },
                {
                    "internalType": "address[]",
                    "name": "_admins",
                    "type": "address[]"
                },
                {
                    "internalType": "uint256",
                    "name": "_requiredApprovals",
                    "type": "uint256"
                }
            ],
            "stateMutability": "nonpayable",
            "type": "constructor"
        },
        {
            "inputs": [],
            "name": "AccessControlBadConfirmation",
            "type": "error"
        },
        {
            "inputs": [
                {
                    "internalType": "address",
                    "name": "account",
                    "type": "address"
                },
                {
                    "internalType": "bytes32",
                    "name": "neededRole",
                    "type": "bytes32"
                }
            ],
            "name": "AccessControlUnauthorizedAccount",
            "type": "error"
        },
        {
            "inputs": [
                {
                    "internalType": "address",
                    "name": "owner",
                    "type": "address"
                }
            ],
            "name": "OwnableInvalidOwner",
            "type": "error"
        },
        {
            "inputs": [
                {
                    "internalType": "address",
                    "name": "account",
                    "type": "address"
                }
            ],
            "name": "OwnableUnauthorizedAccount",
            "type": "error"
        },
        {
            "anonymous": false,
            "inputs": [
                {
                    "indexed": true,
                    "internalType": "address",
                    "name": "previousOwner",
                    "type": "address"
                },
                {
                    "indexed": true,
                    "internalType": "address",
                    "name": "newOwner",
                    "type": "address"
                }
            ],
            "name": "OwnershipTransferred",
            "type": "event"
        },
        {
            "anonymous": false,
            "inputs": [
                {
                    "indexed": true,
                    "internalType": "bytes32",
                    "name": "role",
                    "type": "bytes32"
                },
                {
                    "indexed": true,
                    "internalType": "bytes32",
                    "name": "previousAdminRole",
                    "type": "bytes32"
                },
                {
                    "indexed": true,
                    "internalType": "bytes32",
                    "name": "newAdminRole",
                    "type": "bytes32"
                }
            ],
            "name": "RoleAdminChanged",
            "type": "event"
        },
        {
            "anonymous": false,
            "inputs": [
                {
                    "indexed": true,
                    "internalType": "bytes32",
                    "name": "role",
                    "type": "bytes32"
                },
                {
                    "indexed": true,
                    "internalType": "address",
                    "name": "account",
                    "type": "address"
                },
                {
                    "indexed": true,
                    "internalType": "address",
                    "name": "sender",
                    "type": "address"
                }
            ],
            "name": "RoleGranted",
            "type": "event"
        },
        {
            "anonymous": false,
            "inputs": [
                {
                    "indexed": true,
                    "internalType": "bytes32",
                    "name": "role",
                    "type": "bytes32"
                },
                {
                    "indexed": true,
                    "internalType": "address",
                    "name": "account",
                    "type": "address"
                },
                {
                    "indexed": true,
                    "internalType": "address",
                    "name": "sender",
                    "type": "address"
                }
            ],
            "name": "RoleRevoked",
            "type": "event"
        },
        {
            "anonymous": false,
            "inputs": [
                {
                    "indexed": false,
                    "internalType": "uint256",
                    "name": "proposalId",
                    "type": "uint256"
                },
                {
                    "indexed": false,
                    "internalType": "address",
                    "name": "approver",
                    "type": "address"
                }
            ],
            "name": "UpgradeApproved",
            "type": "event"
        },
        {
            "anonymous": false,
            "inputs": [
                {
                    "indexed": false,
                    "internalType": "uint256",
                    "name": "proposalId",
                    "type": "uint256"
                },
                {
                    "indexed": false,
                    "internalType": "address",
                    "name": "newImplementation",
                    "type": "address"
                }
            ],
            "name": "UpgradeProposed",
            "type": "event"
        },
        {
            "anonymous": false,
            "inputs": [
                {
                    "indexed": false,
                    "internalType": "uint256",
                    "name": "proposalId",
                    "type": "uint256"
                },
                {
                    "indexed": false,
                    "internalType": "address",
                    "name": "newImplementation",
                    "type": "address"
                }
            ],
            "name": "UpgradeReady",
            "type": "event"
        },
        {
            "inputs": [],
            "name": "ADMIN_ROLE",
            "outputs": [
                {
                    "internalType": "bytes32",
                    "name": "",
                    "type": "bytes32"
                }
            ],
            "stateMutability": "view",
            "type": "function"
        },
        {
            "inputs": [],
            "name": "DEFAULT_ADMIN_ROLE",
            "outputs": [
                {
                    "internalType": "bytes32",
                    "name": "",
                    "type": "bytes32"
                }
            ],
            "stateMutability": "view",
            "type": "function"
        },
        {
            "inputs": [],
            "name": "UPGRADER_ROLE",
            "outputs": [
                {
                    "internalType": "bytes32",
                    "name": "",
                    "type": "bytes32"
                }
            ],
            "stateMutability": "view",
            "type": "function"
        },
        {
            "inputs": [],
            "name": "UPGRADE_INTERFACE_VERSION",
            "outputs": [
                {
                    "internalType": "string",
                    "name": "",
                    "type": "string"
                }
            ],
            "stateMutability": "view",
            "type": "function"
        },
        {
            "inputs": [],
            "name": "UPGRADE_TIMELOCK",
            "outputs": [
                {
                    "internalType": "uint256",
                    "name": "",
                    "type": "uint256"
                }
            ],
            "stateMutability": "view",
            "type": "function"
        },
        {
            "inputs": [
                {
                    "internalType": "uint256",
                    "name": "_proposalId",
                    "type": "uint256"
                }
            ],
            "name": "approveUpgrade",
            "outputs": [],
            "stateMutability": "nonpayable",
            "type": "function"
        },
        {
            "inputs": [],
            "name": "currentProposalId",
            "outputs": [
                {
                    "internalType": "uint256",
                    "name": "",
                    "type": "uint256"
                }
            ],
            "stateMutability": "view",
            "type": "function"
        },
        {
            "inputs": [
                {
                    "internalType": "bytes32",
                    "name": "role",
                    "type": "bytes32"
                }
            ],
            "name": "getRoleAdmin",
            "outputs": [
                {
                    "internalType": "bytes32",
                    "name": "",
                    "type": "bytes32"
                }
            ],
            "stateMutability": "view",
            "type": "function"
        },
        {
            "inputs": [
                {
                    "internalType": "bytes32",
                    "name": "role",
                    "type": "bytes32"
                },
                {
                    "internalType": "address",
                    "name": "account",
                    "type": "address"
                }
            ],
            "name": "grantRole",
            "outputs": [],
            "stateMutability": "nonpayable",
            "type": "function"
        },
        {
            "inputs": [
                {
                    "internalType": "bytes32",
                    "name": "role",
                    "type": "bytes32"
                },
                {
                    "internalType": "address",
                    "name": "account",
                    "type": "address"
                }
            ],
            "name": "hasRole",
            "outputs": [
                {
                    "internalType": "bool",
                    "name": "",
                    "type": "bool"
                }
            ],
            "stateMutability": "view",
            "type": "function"
        },
        {
            "inputs": [
                {
                    "internalType": "uint256",
                    "name": "_proposalId",
                    "type": "uint256"
                }
            ],
            "name": "markUpgradeReady",
            "outputs": [],
            "stateMutability": "nonpayable",
            "type": "function"
        },
        {
            "inputs": [],
            "name": "owner",
            "outputs": [
                {
                    "internalType": "address",
                    "name": "",
                    "type": "address"
                }
            ],
            "stateMutability": "view",
            "type": "function"
        },
        {
            "inputs": [
                {
                    "internalType": "address",
                    "name": "_implementation",
                    "type": "address"
                }
            ],
            "name": "proposeUpgrade",
            "outputs": [
                {
                    "internalType": "uint256",
                    "name": "proposalId",
                    "type": "uint256"
                }
            ],
            "stateMutability": "nonpayable",
            "type": "function"
        },
        {
            "inputs": [],
            "name": "renounceOwnership",
            "outputs": [],
            "stateMutability": "nonpayable",
            "type": "function"
        },
        {
            "inputs": [
                {
                    "internalType": "bytes32",
                    "name": "role",
                    "type": "bytes32"
                },
                {
                    "internalType": "address",
                    "name": "callerConfirmation",
                    "type": "address"
                }
            ],
            "name": "renounceRole",
            "outputs": [],
            "stateMutability": "nonpayable",
            "type": "function"
        },
        {
            "inputs": [],
            "name": "requiredApprovals",
            "outputs": [
                {
                    "internalType": "uint256",
                    "name": "",
                    "type": "uint256"
                }
            ],
            "stateMutability": "view",
            "type": "function"
        },
        {
            "inputs": [
                {
                    "internalType": "bytes32",
                    "name": "role",
                    "type": "bytes32"
                },
                {
                    "internalType": "address",
                    "name": "account",
                    "type": "address"
                }
            ],
            "name": "revokeRole",
            "outputs": [],
            "stateMutability": "nonpayable",
            "type": "function"
        },
        {
            "inputs": [
                {
                    "internalType": "bytes4",
                    "name": "interfaceId",
                    "type": "bytes4"
                }
            ],
            "name": "supportsInterface",
            "outputs": [
                {
                    "internalType": "bool",
                    "name": "",
                    "type": "bool"
                }
            ],
            "stateMutability": "view",
            "type": "function"
        },
        {
            "inputs": [
                {
                    "internalType": "address",
                    "name": "newOwner",
                    "type": "address"
                }
            ],
            "name": "transferOwnership",
            "outputs": [],
            "stateMutability": "nonpayable",
            "type": "function"
        },
        {
            "inputs": [
                {
                    "internalType": "contract ITransparentUpgradeableProxy",
                    "name": "proxy",
                    "type": "address"
                },
                {
                    "internalType": "address",
                    "name": "implementation",
                    "type": "address"
                },
                {
                    "internalType": "bytes",
                    "name": "data",
                    "type": "bytes"
                }
            ],
            "name": "upgradeAndCall",
            "outputs": [],
            "stateMutability": "payable",
            "type": "function"
        },
        {
            "inputs": [
                {
                    "internalType": "uint256",
                    "name": "",
                    "type": "uint256"
                }
            ],
            "name": "upgradeProposals",
            "outputs": [
                {
                    "internalType": "address",
                    "name": "newImplementation",
                    "type": "address"
                },
                {
                    "internalType": "uint256",
                    "name": "proposalTime",
                    "type": "uint256"
                },
                {
                    "internalType": "bool",
                    "name": "executed",
                    "type": "bool"
                },
                {
                    "internalType": "uint256",
                    "name": "approvalCount",
                    "type": "uint256"
                }
            ],
            "stateMutability": "view",
            "type": "function"
        }
    ],
    "bytecode": "60806040523461018657611146803803806100198161019e565b92833981019060608183031261018657610032816101c3565b60208201519091906001600160401b0381116101865781019280601f85011215610186578351936001600160401b03851161018a578460051b9060208061007a81850161019e565b80988152019282010192831161018657602001905b82821061016e5750505060400151906001600160a01b03811690811561015b575f80546001600160a01b03198116841782556100fb93916001600160a01b03909116907f8be0079c531659141344cd1fd0a4f28419497f9722a3daafe3b4186f6b6457e09080a36101ff565b505f5b8251811015610148576001906101266001600160a01b0361011f83876101d7565b5116610275565b50610141828060a01b0361013a83876101d7565b5116610308565b50016100fe565b50600255604051610d2a908161039c8239f35b631e4fbdf760e01b5f525f60045260245ffd5b6020809161017b846101c3565b81520191019061008f565b5f80fd5b634e487b7160e01b5f52604160045260245ffd5b6040519190601f01601f191682016001600160401b0381118382101761018a57604052565b51906001600160a01b038216820361018657565b80518210156101eb5760209160051b010190565b634e487b7160e01b5f52603260045260245ffd5b6001600160a01b0381165f9081525f5160206110e65f395f51905f52602052604090205460ff16610270576001600160a01b03165f8181525f5160206110e65f395f51905f5260205260408120805460ff191660011790553391905f5160206110c65f395f51905f528180a4600190565b505f90565b6001600160a01b0381165f9081525f5160206111065f395f51905f52602052604090205460ff16610270576001600160a01b03165f8181525f5160206111065f395f51905f5260205260408120805460ff191660011790553391907fa49807205ce4d355092ef5a8a18f56e8913cf4a201fbe287825b095693c21775905f5160206110c65f395f51905f529080a4600190565b6001600160a01b0381165f9081525f5160206111265f395f51905f52602052604090205460ff16610270576001600160a01b03165f8181525f5160206111265f395f51905f5260205260408120805460ff191660011790553391907f189ab7a9244df0848122154315af71fe140f3db0fe014031783b0946b8c9d2e3905f5160206110c65f395f51905f529080a460019056fe6080806040526004361015610012575f80fd5b5f905f3560e01c90816301ffc9a7146109b857508063248a9ca31461098557806325ed32ca146109685780632f2ff15d1461092a57806336568abe146108e65780635001b98e146107d3578063715018a61461077c57806375b238fc1461074257806389e75cda146105ef5780638da5cb5b146105c857806391d148541461057f5780639623609d1461045c57806399c1aadc1461043e5780639fa42769146103e4578063a217fddf146103c8578063ad3cb1cc1461037b578063c915fc931461022e578063d547741f146101e6578063f2fde38b14610160578063f72c0d8b146101255763feac729d14610105575f80fd5b346101225780600319360112610122576020600354604051908152f35b80fd5b503461012257806003193601126101225760206040517f189ab7a9244df0848122154315af71fe140f3db0fe014031783b0946b8c9d2e38152f35b50346101225760203660031901126101225761017a610a21565b610182610cce565b6001600160a01b031680156101d25781546001600160a01b03198116821783556001600160a01b03167f8be0079c531659141344cd1fd0a4f28419497f9722a3daafe3b4186f6b6457e08380a380f35b631e4fbdf760e01b82526004829052602482fd5b50346101225760403660031901126101225761022a600435610206610a0b565b90610225610220825f526001602052600160405f20015490565b610b84565b610c4a565b5080f35b503461012257602036600319011261012257610248610a21565b610250610b15565b6001600160a01b03811690811561033657600354915f198314610322577f693378ef1892be5859db49de5237e786b7547a3ba400eb863cd6fbd3c16262b89160036103179260406020976001880184558781526004895220906bffffffffffffffffffffffff60a01b8254161781554260018201556002810160ff1981541690556001600482015560018060a01b0333165f5201855260405f20600160ff1982541617905560405191829185839092916020906040830194835260018060a01b0316910152565b0390a1604051908152f35b634e487b7160e01b84526011600452602484fd5b60405162461bcd60e51b815260206004820152601e60248201527f496e76616c696420696d706c656d656e746174696f6e206164647265737300006044820152606490fd5b5034610122578060031936011261012257506103c460405161039e604082610a37565b60058152640352e302e360dc1b6020820152604051918291602083526020830190610a59565b0390f35b5034610122578060031936011261012257602090604051908152f35b5034610122576020366003190112610122576040608091600435815260046020522060018060a01b0381541690600181015490600460ff600283015416910154916040519384526020840152151560408301526060820152f35b50346101225780600319360112610122576020600254604051908152f35b506060366003190112610567576004356001600160a01b0381169081900361056757610486610a0b565b60443567ffffffffffffffff8111610567573660238201121561056757806004013567ffffffffffffffff811161056b57604051916104cf601f8301601f191660200184610a37565b818352366024838301011161056757815f9260246020930183860137830101526104f7610cce565b823b15610567576040805163278f794360e11b81526001600160a01b039093166004840152602483015290915f918391908290819061053a906044830190610a59565b039134905af1801561055c5761054e575080f35b61055a91505f90610a37565b005b6040513d5f823e3d90fd5b5f80fd5b634e487b7160e01b5f52604160045260245ffd5b3461056757604036600319011261056757610598610a0b565b6004355f52600160205260405f209060018060a01b03165f52602052602060ff60405f2054166040519015158152f35b34610567575f366003190112610567575f546040516001600160a01b039091168152602090f35b346105675760203660031901126105675760043561060b610b15565b805f52600460205260405f209060018060a01b038254169061062e821515610a7d565b6002830180549361064260ff861615610ac9565b60048101546002541161070657600101546202a30081018091116106f25742106106b65760ff19909316600117909255604080519283526001600160a01b0390911660208301527fddfa6628c7874bd4d97304f45bc8f3ce22c89c410a1821ae29b71667651eb8ed9190819081015b0390a1005b60405162461bcd60e51b8152602060048201526014602482015273151a5b595b1bd8dac81b9bdd08195e1c1a5c995960621b6044820152606490fd5b634e487b7160e01b5f52601160045260245ffd5b60405162461bcd60e51b81526020600482015260146024820152734e6f7420656e6f75676820617070726f76616c7360601b6044820152606490fd5b34610567575f3660031901126105675760206040517fa49807205ce4d355092ef5a8a18f56e8913cf4a201fbe287825b095693c217758152f35b34610567575f36600319011261056757610794610cce565b5f80546001600160a01b0319811682556001600160a01b03167f8be0079c531659141344cd1fd0a4f28419497f9722a3daafe3b4186f6b6457e08280a3005b34610567576020366003190112610567576004356107ef610b15565b5f8181526004602052604090208054610812906001600160a01b03161515610a7d565b61082360ff60028301541615610ac9565b600381019060018060a01b0333165f528160205260ff60405f2054166108ae5760049160018060a01b0333165f5260205260405f20600160ff1982541617905501805491600183018093116106f257919055604080519182523360208301527fd75dcac5a584d0289d6fb0b5e44d934b84e475bb8a42e6cc81a00f5dab30450b9190819081016106b1565b60405162461bcd60e51b815260206004820152601060248201526f105b1c9958591e48185c1c1c9bdd995960821b6044820152606490fd5b34610567576040366003190112610567576108ff610a0b565b336001600160a01b0382160361091b5761055a90600435610c4a565b63334bd91960e11b5f5260045ffd5b346105675760403660031901126105675761055a600435610949610a0b565b90610963610220825f526001602052600160405f20015490565b610bbe565b34610567575f3660031901126105675760206040516202a3008152f35b346105675760203660031901126105675760206109b06004355f526001602052600160405f20015490565b604051908152f35b34610567576020366003190112610567576004359063ffffffff60e01b821680920361056757602091637965db0b60e01b81149081156109fa575b5015158152f35b6301ffc9a760e01b149050836109f3565b602435906001600160a01b038216820361056757565b600435906001600160a01b038216820361056757565b90601f8019910116810190811067ffffffffffffffff82111761056b57604052565b805180835260209291819084018484015e5f828201840152601f01601f1916010190565b15610a8457565b60405162461bcd60e51b815260206004820152601760248201527f50726f706f73616c20646f6573206e6f742065786973740000000000000000006044820152606490fd5b15610ad057565b60405162461bcd60e51b815260206004820152601960248201527f50726f706f73616c20616c7265616479206578656375746564000000000000006044820152606490fd5b335f9081527fc1e9f81cd57f65f175ba2a325b8703682933a6ee2fee8d5f5a769f1a1e7b863f602052604090205460ff1615610b4d57565b63e2517d3f60e01b5f52336004527f189ab7a9244df0848122154315af71fe140f3db0fe014031783b0946b8c9d2e360245260445ffd5b5f81815260016020908152604080832033845290915290205460ff1615610ba85750565b63e2517d3f60e01b5f523360045260245260445ffd5b5f8181526001602090815260408083206001600160a01b038616845290915290205460ff16610c44575f8181526001602081815260408084206001600160a01b0396909616808552959091528220805460ff19169091179055339291907f2f8788117e7eff1d82e926ec794901d17c78024a50270940304540a733656f0d9080a4600190565b50505f90565b5f8181526001602090815260408083206001600160a01b038616845290915290205460ff1615610c44575f8181526001602090815260408083206001600160a01b0395909516808452949091528120805460ff19169055339291907ff6391f5c32d9c69d2a47ea670b442974b53935d1edc7fd64eb21e047a839171b9080a4600190565b5f546001600160a01b03163303610ce157565b63118cdaa760e01b5f523360045260245ffdfea2646970667358221220e736f99a9b61c8b088edcc44b32b6eab02d623cec6954c002e46af044564833564736f6c634300081e00332f8788117e7eff1d82e926ec794901d17c78024a50270940304540a733656f0da6eef7e35abe7026729641147f7915573c7e97b47efa546f5f6e3230263bcb4950efbde2d46c37e9785f1791697f77e94bb7b701e19f1930a668820722d37694c1e9f81cd57f65f175ba2a325b8703682933a6ee2fee8d5f5a769f1a1e7b863f",
    "sourcePath": "d:/Client Data/AmitjiSharma/fortunity-dapp/contracts/contracts/FortuneNXTProxyAdmin.sol",
    "compiler": {
        "name": "solc",
        "version": "0.8.30+commit.73712a01"
    },
    "functionHashes": {
        "ADMIN_ROLE()": "75b238fc",
        "DEFAULT_ADMIN_ROLE()": "a217fddf",
        "UPGRADER_ROLE()": "f72c0d8b",
        "UPGRADE_INTERFACE_VERSION()": "ad3cb1cc",
        "UPGRADE_TIMELOCK()": "25ed32ca",
        "approveUpgrade(uint256)": "5001b98e",
        "currentProposalId()": "feac729d",
        "getRoleAdmin(bytes32)": "248a9ca3",
        "grantRole(bytes32,address)": "2f2ff15d",
        "hasRole(bytes32,address)": "91d14854",
        "markUpgradeReady(uint256)": "89e75cda",
        "owner()": "8da5cb5b",
        "proposeUpgrade(address)": "c915fc93",
        "renounceOwnership()": "715018a6",
        "renounceRole(bytes32,address)": "36568abe",
        "requiredApprovals()": "99c1aadc",
        "revokeRole(bytes32,address)": "d547741f",
        "supportsInterface(bytes4)": "01ffc9a7",
        "transferOwnership(address)": "f2fde38b",
        "upgradeAndCall(address,address,bytes)": "9623609d",
        "upgradeProposals(uint256)": "9fa42769"
    },
    "gasEstimates": {
        "creation": {
            "codeDepositCost": "674000",
            "executionCost": "infinite",
            "totalCost": "infinite"
        },
        "external": {
            "ADMIN_ROLE()": "312",
            "DEFAULT_ADMIN_ROLE()": "472",
            "UPGRADER_ROLE()": "579",
            "UPGRADE_INTERFACE_VERSION()": "784",
            "UPGRADE_TIMELOCK()": "202",
            "approveUpgrade(uint256)": "58968",
            "currentProposalId()": "2699",
            "getRoleAdmin(bytes32)": "2369",
            "grantRole(bytes32,address)": "33351",
            "hasRole(bytes32,address)": "2710",
            "markUpgradeReady(uint256)": "36803",
            "owner()": "2482",
            "proposeUpgrade(address)": "145502",
            "renounceOwnership()": "28187",
            "renounceRole(bytes32,address)": "28934",
            "requiredApprovals()": "2528",
            "revokeRole(bytes32,address)": "33660",
            "supportsInterface(bytes4)": "275",
            "transferOwnership(address)": "28571",
            "upgradeAndCall(address,address,bytes)": "infinite",
            "upgradeProposals(uint256)": "9030"
        }
    }
}